:0300000002011BDF
:0C011B00787FE4F6D8FD75810A0200260A
:080130000A49206765742000F4
:10000300D3EF9400EE940040147D6E7C00ED1D70E0
:0D001300011CED4C70F7EF1F70E61E80E33E
:0100200022BD
:070138005390F053A0F022E8
:0F00DF0012013843900943A006120003020138B2
:0F00EE0012013843900643A009120003020138A3
:0F00FD0012013843900A43A00A1200030201388F
:0F010C0012013843900543A00512000302013889
:10009800EF249E601724FB600C24FC601624F97082
:1000A80019D2A48010C2A4D2A5C2A622C2A4C2A5F5
:1000B800D2A622C2A4C2A5C2A622D2A4D2A5D2A6E2
:0100C8002215
:1000C900758920758DFD758BFDD28ED29CC29FD20C
:0600D9009ED2AFD2AC2262
:100026001200C9E508B401FBC2ACE4F50AE50A9082
:10003600013093F5993099FDC299050AE50AB4078E
:10004600EC8509993099FDC299D2ACE4F508E50929
:1000560024BE601724F6601E24FA6028240C70C3A0
:100066007FE87E031200DF7F6780147FE87E03123D
:1000760000EE7F7280097F687E011200FD7F6212AA
:100086000098809F7F687E0112010C7F62120098A3
:02009600809157
:03002300020127B0
:09012700C298859909750801329E
:00000001FF
